:020000040000FA
:100000000C9462000C948A000C948A000C948A0070
:100010000C948A000C948A000C948A000C948A0038
:100020000C948A000C948A000C948A000C94C703E8
:100030000C948A000C948A000C948A000C948A0018
:100040000C947D030C948A000C944B030C942503B0
:100050000C948A000C948A000C948A000C948A00F8
:100060000C948A000C948A000000000025002800EF
:100070002B0000000000240027002A0000000000E0
:1000800023002600290004040404040404040202DA
:100090000202020203030303030301020408102007
:1000A0004080010204081020010204081020000012
:1000B0000008000201000003040700000000000027
:1000C00000009E0411241FBECFEFD8E0DEBFCDBFDD
:1000D00011E0A0E0B1E0E8E0FDE002C005900D9283
:1000E000A231B107D9F721E0A2E1B1E001C01D9230
:1000F000AD3EB207E1F710E0C2E6D0E004C02197C0
:10010000FE010E947C06C136D107C9F70E94DE04B9
:100110000C9482060C940000AF92BF92CF92DF92B3
:10012000EF92FF920F931F93CF93DF936C017B01AC
:100130008B01040F151FEB015E01AE18BF08C0173D
:10014000D10759F06991D601ED91FC910190F081B0
:10015000E02DC6010995892B79F7C501DF91CF9173
:100160001F910F91FF90EF90DF90CF90BF90AF90D5
:100170000895FC01538D448D252F30E0842F90E0AD
:10018000821B930B541710F0CF9608950197089592
:10019000FC01918D828D981761F0A28DAE0FBF2F5B
:1001A000B11D5D968C91928D9F5F9F73928F90E0B1
:1001B00008958FEF9FEF0895FC01918D828D981720
:1001C00031F0828DE80FF11D858D90E008958FEF5D
:1001D0009FEF0895FC01918D228D892F90E0805C26
:1001E0009F4F821B91098F739927089581E491E0B5
:1001F0000E94EA0021E0892B09F420E0822F089573
:1002000080E090E0892B29F00E94F60081110C9487
:1002100000000895FC01A48DA80FB92FB11DA35AA9
:10022000BF4F2C91848D90E001968F739927848F16
:10023000A689B7892C93A089B1898C918370806439
:100240008C93938D848D981306C00288F389E02DDA
:1002500080818F7D80830895EF92FF920F931F938B
:10026000CF93DF93EC0181E0888F9B8D8C8D981369
:100270001AC0E889F989808185FF15C09FB7F89475
:10028000EE89FF896083E889F989808183708064C1
:1002900080839FBF81E090E0DF91CF911F910F910C
:1002A000FF90EF900895F62E0B8D10E00F5F1F4F1B
:1002B0000F731127E02E8C8D8E110CC00FB607FC2A
:1002C000FACFE889F989808185FFF5CFCE010E94B8
:1002D0000A01F1CFEB8DEC0FFD2FF11DE35AFF4F1B
:1002E000F0829FB7F8940B8FEA89FB898081806246
:1002F000CFCFCF93DF93EC01888D8823B9F0AA8903
:10030000BB89E889F9898C9185FD03C0808186FDD0
:100310000DC00FB607FCF7CF8C9185FFF2CF80811F
:1003200085FFEDCFCE010E940A01E9CFDF91CF9189
:100330000895833081F028F4813099F08230A9F05B
:1003400008958730A9F08830C9F08430B1F48091E5
:1003500080008F7D03C0809180008F778093800024
:10036000089584B58F7784BD089584B58F7DFBCFC4
:100370008091B0008F778093B00008958091B00095
:100380008F7DF9CF1F93CF93DF93282F30E0F901B2
:10039000E255FF4F8491F901E656FF4FD491F901E0
:1003A000EA57FF4FC491CC23A9F0162F81110E9468
:1003B0009901EC2FF0E0EE0FFF1FE859FF4FA591D8
:1003C000B4918FB7F894EC91111108C0D095DE2349
:1003D000DC938FBFDF91CF911F910895DE2BF8CF73
:1003E0003FB7F89480913D0190913E01A0913F016B
:1003F000B091400126B5A89B05C02F3F19F001968A
:10040000A11DB11D3FBFBA2FA92F982F8827BC016E
:10041000CD01620F711D811D911D42E0660F771F96
:10042000881F991F4A95D1F708958F929F92AF9296
:10043000BF92CF92DF92EF92FF920E94F0014B01A8
:100440005C0184E6C82ED12CE12CF12C0E94F00135
:10045000681979098A099B09683E734081059105ED
:10046000A8F321E0C21AD108E108F10888EE880E4D
:1004700083E0981EA11CB11CC114D104E104F10455
:1004800029F7FF90EF90DF90CF90BF90AF909F90B3
:100490008F9008958F929F92AF92BF92FF920F9389
:1004A0001F93CF93DF93FC01F0808BE08F1508F44E
:1004B0004AC0828108E512E0081B110987FD1395E7
:1004C000000F111F000F111F8181C8E8D0E0C81B69
:1004D000D10987FDD395CC0FDD1FCC0FDD1F4E0159
:1004E0000D2E000CAA08BB089801012E000C440B2D
:1004F000550B281939094A095B09DB010E943706A7
:1005000024EB30E040E050E00E940D06820E931E86
:10051000A41EB51E8C169D062CF0E80180169106CF
:100520000CF4E4012297CC0FDD1F2FB7F8948F2D28
:1005300090E0FC01EE0FFF1FE80FF91FEC5EFE4F8D
:10054000D283C1832FBFDF91CF911F910F91FF9075
:10055000BF90AF909F908F900895CF93DF93DC0171
:100560008C918C3008F06DC0CB01FB01E656FF4F3B
:1005700024918A579F4FFC018491882399F090E041
:10058000880F991FFC01EE58FF4FC591D491FC01D3
:10059000E859FF4F859194918FB7F894E881E22B49
:1005A000E8838FBF8C91282F30E0F901EE0FFF1FF9
:1005B000E20FF31FEC5EFE4F962F9F736081607C0D
:1005C000692B608311961C92119712961C921297B8
:1005D0002CE0622F0E947006829FB001112430E04F
:1005E00020E0AB01420F531FFA01EE0FFF1FE40F93
:1005F000F51FEC5EFE4F908196FD16C02F5F3F4FBA
:100600002C30310571F781110FC01092800082E00B
:10061000809381001092850010928400B19A80919D
:100620006F00826080936F00EC918E2F90E0FC0150
:10063000EE0FFF1FE80FF91FEC5EFE4F8081806414
:1006400080838C91DF91CF9108951F920F920FB606
:100650000F9211242F933F934F935F936F937F9348
:100660008F939F93AF93BF93EF93FF9381E491E0B8
:100670000E940A01FF91EF91BF91AF919F918F91DD
:100680007F916F915F914F913F912F910F900FBE8E
:100690000F901F9018951F920F920FB60F92112472
:1006A0002F938F939F93EF93FF93E0915101F091DC
:1006B00052018081E0915701F091580182FD1BC0E9
:1006C000908180915A018F5F8F7320915B01821717
:1006D00041F0E0915A01F0E0EF5BFE4F958F80937F
:1006E0005A01FF91EF919F918F912F910F900FBE23
:1006F0000F901F9018958081F4CF1F920F920FB624
:100700000F9211242F933F938F939F93AF93BF9397
:100710008091390190913A01A0913B01B0913C0147
:100720003091380123E0230F2D3758F50196A11D94
:10073000B11D209338018093390190933A01A09321
:100740003B01B0933C0180913D0190913E01A0910D
:100750003F01B09140010196A11DB11D80933D0163
:1007600090933E01A0933F01B0934001BF91AF91A0
:100770009F918F913F912F910F900FBE0F901F90DF
:10078000189526E8230F0296A11DB11DD2CF1F9206
:100790000F920FB60F9211242F933F934F935F93B5
:1007A0006F937F938F939F93AF93BF93CF93DF9379
:1007B000EF93FF9380911201C0911301D0E087FF66
:1007C00024C01092850010928400809112018F5FE6
:1007D0008093120180911201082E000C990B8C1746
:1007E0009D0724F4809112018C30C4F18091840023
:1007F00090918500049680349C4908F47AC08091D9
:10080000840090918500049676C080911201082E94
:10081000000C990B8C179D07C4F6E09112018E2FE6
:10082000EE0F990BFC01EE0FFF1FE80FF91FEC5EB6
:10083000FE4F808186FFC9CFE09112018E2FEE0F0F
:10084000990BFC01EE0FFF1FE80FF91FEC5EFE4F46
:10085000808160E08F730E94C201B7CF2091840035
:1008600030918500E09112018E2FEE0F990BFC0163
:10087000EE0FFF1FE80FF91FEC5EFE4F81819281A2
:10088000820F931F9093890080938800E09112015A
:100890008E2FEE0F990BFC01EE0FFF1FE80FF91FD3
:1008A000EC5EFE4F808186FF11C0E09112018E2F19
:1008B000EE0F990BFC01EE0FFF1FE80FF91FEC5E26
:1008C000FE4F808161E08F730E94C201FF91EF9122
:1008D000DF91CF91BF91AF919F918F917F916F9158
:1008E0005F914F913F912F910F900FBE0F901F90EE
:1008F000189580E49CE990938900809388008FEF9D
:1009000080931201E3CFFC01909113019C3098F485
:1009100081E0890F809313019083892F90E0FC017F
:10092000EE0FFF1FE80FF91FEC5EFE4F88EB9BE018
:100930009283818308958FEF80830895E1E4F1E04D
:100940001382128288EE93E0A0E0B0E08483958366
:10095000A683B78384E091E09183808385EC90E067
:100960009587848784EC90E09787868780EC90E079
:10097000918B808B81EC90E0938B828B82EC90E06A
:10098000958B848B86EC90E0978B868B118E128EE4
:10099000138E148E8AEE91E00E94830487EE91E01C
:1009A0000E94830484EE91E00E94830481EE91E032
:1009B0000E9483048EED91E00C948304789484B5B6
:1009C000826084BD84B5816084BD85B5826085BD4B
:1009D00085B5816085BD80916E00816080936E00D9
:1009E00010928100809181008260809381008091CB
:1009F000810081608093810080918000816080937C
:100A000080008091B10084608093B1008091B0003B
:100A100081608093B00080917A00846080937A0036
:100A200080917A00826080937A0080917A00816060
:100A300080937A0080917A00806880937A00109287
:100A4000C100E0915101F091520182E08083E09178
:100A50004D01F0914E011082E0914F01F091500153
:100A60008FEC808310925901E0915501F09156016D
:100A700086E08083E0915301F09154018081806190
:100A80008083E0915301F0915401808188608083DC
:100A9000E0915301F0915401808180688083E0915E
:100AA0005301F091540180818F7D808363E070E079
:100AB0008AEE91E00E94AD0264E070E087EE91E082
:100AC0000E94AD0265E070E084EE91E00E94AD020C
:100AD00066E070E081EE91E00E94AD0267E070E0B8
:100AE0008EED91E00E94AD02CCE9D0E0FE012491B0
:100AF00008E810E0F80184918823C9F090E0880F9D
:100B0000991FFC01EE58FF4FA591B491FC01E859E3
:100B1000FF4F459154913FB7F8949C91822F809557
:100B200098239C93FA019081892380833FBF90EBA7
:100B3000E92E90E0F92E20E0C22E20E0D22EF7011F
:100B40008491FE01A490F801B490BB2009F442C046
:100B500081110E949901EB2DF0E0EE0FFF1FE45888
:100B6000FF4FA591B4918C91A822A1F16AEA70E09F
:100B70008AEE91E00E944A020E9415026AEA70E041
:100B800087EE91E00E944A020E9415026AEA70E034
:100B900084EE91E00E944A020E9415026AEA70E027
:100BA00081EE91E00E944A020E9415026AEA70E01A
:100BB0008EED91E00E944A020E941502C114D104F8
:100BC00009F4BDCF0E94F600882309F4B8CF0E9433
:100BD0000000B5CF6AE070E08AEE91E00E944A0220
:100BE0000E9415026AE070E087EE91E00E944A02DE
:100BF0000E9415026AE070E084EE91E00E944A02D1
:100C00000E9415026AE070E081EE91E00E944A02C3
:100C10000E9415026AE070E0CBCF052E97FB1EF410
:100C200000940E94240657FD07D00E943F0607FC4F
:100C300003D04EF40C9424065095409530952195A0
:100C40003F4F4F4F5F4F08959095809570956195F8
:100C50007F4F8F4F9F4F08950E946106A59F900D73
:100C6000B49F900DA49F800D911D11240895B7FF8E
:100C70000C942C060E942C06821B930B0895A1E273
:100C80001A2EAA1BBB1BFD010DC0AA1FBB1FEE1F06
:100C9000FF1FA217B307E407F50720F0A21BB30B51
:100CA000E40BF50B661F771F881F991F1A9469F7CD
:100CB00060957095809590959B01AC01BD01CF0129
:100CC0000895A29FB001B39FC001A39F700D811D25
:100CD0001124911DB29F700D811D1124911D089545
:100CE000991B79E004C0991F961708F0961B881F7E
:100CF0007A95C9F780950895EE0FFF1F0590F4913E
:100D0000E02D0994F894FFCF000000002C018C0026
:0A0D1000B9007901EA00C800DC0018
:107E0000112484B714BE81FFF0D085E080938100F7
:107E100082E08093C00088E18093C10086E0809377
:107E2000C20080E18093C4008EE0C9D0259A86E02C
:107E300020E33CEF91E0309385002093840096BBD3
:107E4000B09BFECF1D9AA8958150A9F7CC24DD24C4
:107E500088248394B5E0AB2EA1E19A2EF3E0BF2EE7
:107E6000A2D0813461F49FD0082FAFD0023811F036
:107E7000013811F484E001C083E08DD089C08234E0
:107E800011F484E103C0853419F485E0A6D080C0E4
:107E9000853579F488D0E82EFF2485D0082F10E0AE
:107EA000102F00270E291F29000F111F8ED06801E7
:107EB0006FC0863521F484E090D080E0DECF843638
:107EC00009F040C070D06FD0082F6DD080E0C81688
:107ED00080E7D80618F4F601B7BEE895C0E0D1E017
:107EE00062D089930C17E1F7F0E0CF16F0E7DF06D8
:107EF00018F0F601B7BEE89568D007B600FCFDCFD4
:107F0000A601A0E0B1E02C9130E011968C91119780
:107F100090E0982F8827822B932B1296FA010C0160
:107F200087BEE89511244E5F5F4FF1E0A038BF0790
:107F300051F7F601A7BEE89507B600FCFDCF97BE46
:107F4000E89526C08437B1F42ED02DD0F82E2BD052
:107F50003CD0F601EF2C8F010F5F1F4F84911BD097
:107F6000EA94F801C1F70894C11CD11CFA94CF0C13
:107F7000D11C0EC0853739F428D08EE10CD085E9AC
:107F80000AD08FE07ACF813511F488E018D01DD067
:107F900080E101D065CF982F8091C00085FFFCCF94
:107FA0009093C60008958091C00087FFFCCF809118
:107FB000C00084FD01C0A8958091C6000895E0E648
:107FC000F0E098E1908380830895EDDF803219F02E
:107FD00088E0F5DFFFCF84E1DECF1F93182FE3DFCA
:107FE0001150E9F7F2DF1F91089580E0E8DFEE27F6
:047FF000FF270994CA
:027FFE00040479
:00000001FF
